{
    "_format": "hh-sol-artifact-1",
    "contractName": "SmartCoWOrders",
    "sourceName": "contracts/SmartCoWOrders.sol",
    "abi": [
        {
            "inputs": [
                {
                    "internalType": "contract ISuperfluid",
                    "name": "host_",
                    "type": "address"
                },
                {
                    "internalType": "contract ICoWSwapSettlement",
                    "name": "settlement_",
                    "type": "address"
                },
                {
                    "internalType": "contract LinkTokenInterface",
                    "name": "link_",
                    "type": "address"
                },
                {
                    "internalType": "address",
                    "name": "registrar_",
                    "type": "address"
                },
                {
                    "internalType": "contract AutomationRegistryInterface",
                    "name": "registry_",
                    "type": "address"
                }
            ],
            "stateMutability": "nonpayable",
            "type": "constructor"
        },
        {
            "inputs": [
                {
                    "internalType": "contract ISuperToken",
                    "name": "",
                    "type": "address"
                },
                {
                    "internalType": "address",
                    "name": "",
                    "type": "address"
                },
                {
                    "internalType": "bytes32",
                    "name": "",
                    "type": "bytes32"
                },
                {
                    "internalType": "bytes",
                    "name": "",
                    "type": "bytes"
                },
                {
                    "internalType": "bytes",
                    "name": "",
                    "type": "bytes"
                },
                {
                    "internalType": "bytes",
                    "name": "",
                    "type": "bytes"
                }
            ],
            "name": "afterAgreementCreated",
            "outputs": [
                {
                    "internalType": "bytes",
                    "name": "",
                    "type": "bytes"
                }
            ],
            "stateMutability": "nonpayable",
            "type": "function"
        },
        {
            "inputs": [
                {
                    "internalType": "contract ISuperToken",
                    "name": "",
                    "type": "address"
                },
                {
                    "internalType": "address",
                    "name": "",
                    "type": "address"
                },
                {
                    "internalType": "bytes32",
                    "name": "",
                    "type": "bytes32"
                },
                {
                    "internalType": "bytes",
                    "name": "",
                    "type": "bytes"
                },
                {
                    "internalType": "bytes",
                    "name": "",
                    "type": "bytes"
                },
                {
                    "internalType": "bytes",
                    "name": "",
                    "type": "bytes"
                }
            ],
            "name": "afterAgreementTerminated",
            "outputs": [
                {
                    "internalType": "bytes",
                    "name": "",
                    "type": "bytes"
                }
            ],
            "stateMutability": "nonpayable",
            "type": "function"
        },
        {
            "inputs": [
                {
                    "internalType": "contract ISuperToken",
                    "name": "",
                    "type": "address"
                },
                {
                    "internalType": "address",
                    "name": "",
                    "type": "address"
                },
                {
                    "internalType": "bytes32",
                    "name": "",
                    "type": "bytes32"
                },
                {
                    "internalType": "bytes",
                    "name": "",
                    "type": "bytes"
                },
                {
                    "internalType": "bytes",
                    "name": "",
                    "type": "bytes"
                },
                {
                    "internalType": "bytes",
                    "name": "",
                    "type": "bytes"
                }
            ],
            "name": "afterAgreementUpdated",
            "outputs": [
                {
                    "internalType": "bytes",
                    "name": "",
                    "type": "bytes"
                }
            ],
            "stateMutability": "nonpayable",
            "type": "function"
        },
        {
            "inputs": [
                {
                    "internalType": "contract ISuperToken",
                    "name": "",
                    "type": "address"
                },
                {
                    "internalType": "address",
                    "name": "",
                    "type": "address"
                },
                {
                    "internalType": "bytes32",
                    "name": "",
                    "type": "bytes32"
                },
                {
                    "internalType": "bytes",
                    "name": "",
                    "type": "bytes"
                },
                {
                    "internalType": "bytes",
                    "name": "",
                    "type": "bytes"
                }
            ],
            "name": "beforeAgreementCreated",
            "outputs": [
                {
                    "internalType": "bytes",
                    "name": "",
                    "type": "bytes"
                }
            ],
            "stateMutability": "view",
            "type": "function"
        },
        {
            "inputs": [
                {
                    "internalType": "contract ISuperToken",
                    "name": "",
                    "type": "address"
                },
                {
                    "internalType": "address",
                    "name": "",
                    "type": "address"
                },
                {
                    "internalType": "bytes32",
                    "name": "",
                    "type": "bytes32"
                },
                {
                    "internalType": "bytes",
                    "name": "",
                    "type": "bytes"
                },
                {
                    "internalType": "bytes",
                    "name": "",
                    "type": "bytes"
                }
            ],
            "name": "beforeAgreementTerminated",
            "outputs": [
                {
                    "internalType": "bytes",
                    "name": "",
                    "type": "bytes"
                }
            ],
            "stateMutability": "view",
            "type": "function"
        },
        {
            "inputs": [
                {
                    "internalType": "contract ISuperToken",
                    "name": "",
                    "type": "address"
                },
                {
                    "internalType": "address",
                    "name": "",
                    "type": "address"
                },
                {
                    "internalType": "bytes32",
                    "name": "",
                    "type": "bytes32"
                },
                {
                    "internalType": "bytes",
                    "name": "",
                    "type": "bytes"
                },
                {
                    "internalType": "bytes",
                    "name": "",
                    "type": "bytes"
                }
            ],
            "name": "beforeAgreementUpdated",
            "outputs": [
                {
                    "internalType": "bytes",
                    "name": "",
                    "type": "bytes"
                }
            ],
            "stateMutability": "view",
            "type": "function"
        },
        {
            "inputs": [],
            "name": "cfaV1",
            "outputs": [
                {
                    "internalType": "contract ISuperfluid",
                    "name": "host",
                    "type": "address"
                },
                {
                    "internalType": "contract IConstantFlowAgreementV1",
                    "name": "cfa",
                    "type": "address"
                }
            ],
            "stateMutability": "view",
            "type": "function"
        },
        {
            "inputs": [
                {
                    "internalType": "address",
                    "name": "owner",
                    "type": "address"
                },
                {
                    "internalType": "address",
                    "name": "token",
                    "type": "address"
                },
                {
                    "internalType": "uint96",
                    "name": "linkAmount",
                    "type": "uint96"
                }
            ],
            "name": "fundUpkeep",
            "outputs": [],
            "stateMutability": "nonpayable",
            "type": "function"
        },
        {
            "inputs": [],
            "name": "link",
            "outputs": [
                {
                    "internalType": "contract LinkTokenInterface",
                    "name": "",
                    "type": "address"
                }
            ],
            "stateMutability": "view",
            "type": "function"
        },
        {
            "inputs": [
                {
                    "internalType": "address",
                    "name": "",
                    "type": "address"
                },
                {
                    "internalType": "address",
                    "name": "",
                    "type": "address"
                }
            ],
            "name": "ownerToTokenToContract",
            "outputs": [
                {
                    "internalType": "contract SmartCoWOrder",
                    "name": "",
                    "type": "address"
                }
            ],
            "stateMutability": "view",
            "type": "function"
        },
        {
            "inputs": [
                {
                    "components": [
                        {
                            "internalType": "contract IERC20",
                            "name": "sellToken",
                            "type": "address"
                        },
                        {
                            "internalType": "contract IERC20",
                            "name": "buyToken",
                            "type": "address"
                        },
                        {
                            "internalType": "address",
                            "name": "receiver",
                            "type": "address"
                        },
                        {
                            "internalType": "uint256",
                            "name": "sellAmount",
                            "type": "uint256"
                        },
                        {
                            "internalType": "uint256",
                            "name": "buyAmount",
                            "type": "uint256"
                        },
                        {
                            "internalType": "uint32",
                            "name": "deadline",
                            "type": "uint32"
                        },
                        {
                            "internalType": "uint256",
                            "name": "feeAmount",
                            "type": "uint256"
                        },
                        {
                            "internalType": "bytes",
                            "name": "meta",
                            "type": "bytes"
                        }
                    ],
                    "internalType": "struct SmartCoWOrder.Data",
                    "name": "data",
                    "type": "tuple"
                },
                {
                    "internalType": "contract ISuperToken",
                    "name": "superToken",
                    "type": "address"
                },
                {
                    "internalType": "int96",
                    "name": "flowRate",
                    "type": "int96"
                },
                {
                    "internalType": "uint32",
                    "name": "gasLimit",
                    "type": "uint32"
                },
                {
                    "internalType": "uint96",
                    "name": "linkAmount",
                    "type": "uint96"
                }
            ],
            "name": "place",
            "outputs": [],
            "stateMutability": "nonpayable",
            "type": "function"
        },
        {
            "inputs": [],
            "name": "registrar",
            "outputs": [
                {
                    "internalType": "address",
                    "name": "",
                    "type": "address"
                }
            ],
            "stateMutability": "view",
            "type": "function"
        },
        {
            "inputs": [],
            "name": "registry",
            "outputs": [
                {
                    "internalType": "contract AutomationRegistryInterface",
                    "name": "",
                    "type": "address"
                }
            ],
            "stateMutability": "view",
            "type": "function"
        },
        {
            "inputs": [],
            "name": "settlement",
            "outputs": [
                {
                    "internalType": "contract ICoWSwapSettlement",
                    "name": "",
                    "type": "address"
                }
            ],
            "stateMutability": "view",
            "type": "function"
        }
    ],
    "bytecode": "0x6101006040523480156200001257600080fd5b506040516200444d3803806200444d8339810160408190526200003591620001be565b6001600160a01b03848116608052600280546001600160a01b03191687831690811790915584821660a05283821660c05290821660e0526040805180820182528281529051635b69006f60e11b81527fa9214cc96615e0085d3bb077758db69497dc2dce3b2b1e97bc93c3d18d83efd360048201529091602083019163b6d200de90602401602060405180830381865afa158015620000d8573d6000803e3d6000fd5b505050506040513d601f19601f82011682018060405250810190620000fe91906200023e565b6001600160a01b039081169091528151600080549183166001600160a01b03199283161790556020909201516001805491831691909316179091556002546040516315a722b960e31b81526415000000016004820181905292919091169063ad3915c890602401600060405180830381600087803b1580156200018057600080fd5b505af115801562000195573d6000803e3d6000fd5b5050505050505050505062000265565b6001600160a01b0381168114620001bb57600080fd5b50565b600080600080600060a08688031215620001d757600080fd5b8551620001e481620001a5565b6020870151909550620001f781620001a5565b60408701519094506200020a81620001a5565b60608701519093506200021d81620001a5565b60808701519092506200023081620001a5565b809150509295509295909350565b6000602082840312156200025157600080fd5b81516200025e81620001a5565b9392505050565b60805160a05160c05160e05161417d620002d06000396000818161026f01526105ca0152600081816101aa01526105a9015260008181610108015281816104b30152818161058801528181610659015261092c0152600081816102020152610566015261417d6000f3fe60806040523480156200001157600080fd5b5060043610620000fd5760003560e01c806353c11f9911620000975780637b103999116200006e5780637b1039991462000269578063884d1f401462000291578063d3112b2e14620002a8578063d86ed3e514620002e457600080fd5b806353c11f9914620002245780635e9353e3146200023b5780635f9e7d77146200025257600080fd5b80632b20e39711620000d85780632b20e39714620001a457806330d9c91514620001cc5780634571426314620001e35780635116063014620001fc57600080fd5b80631c4695f41462000102578063230dbd29146200014757806324c3f84a146200016d575b600080fd5b6200012a7f000000000000000000000000000000000000000000000000000000000000000081565b6040516001600160a01b0390911681526020015b60405180910390f35b6200015e6200015836600462000d0f565b620002fb565b6040516200013e919062000e3c565b6200012a6200017e36600462000e58565b60036020908152600092835260408084209091529082529020546001600160a01b031681565b6200012a7f000000000000000000000000000000000000000000000000000000000000000081565b6200015e620001dd36600462000e96565b62000362565b620001fa620001f436600462000f6d565b620003c6565b005b6200012a7f000000000000000000000000000000000000000000000000000000000000000081565b6200015e6200023536600462000d0f565b62000825565b620001fa6200024c36600462001008565b6200088b565b6200015e6200026336600462000e96565b62000a1d565b6200012a7f000000000000000000000000000000000000000000000000000000000000000081565b6200015e620002a236600462000e96565b62000a85565b600054600154620002c3916001600160a01b03908116911682565b604080516001600160a01b039384168152929091166020830152016200013e565b6200015e620002f536600462000d0f565b62000ae9565b60405162461bcd60e51b815260206004820152602e60248201527f556e737570706f727465642063616c6c6261636b202d2041667465722041677260448201526d19595b595b9d08155c19185d195960921b60648201526060906084015b60405180910390fd5b60405162461bcd60e51b815260206004820152602f60248201527f556e737570706f727465642063616c6c6261636b202d204265666f726520416760448201526e1c99595b595b9d0810dc99585d1959608a1b606482015260609060840162000359565b620003d5602086018662001056565b6001600160a01b0316846001600160a01b031663ee719bc86040518163ffffffff1660e01b8152600401602060405180830381865afa1580156200041d573d6000803e3d6000fd5b505050506040513d601f19601f8201168201806040525081019062000443919062001076565b6001600160a01b031614620004895760405162461bcd60e51b815260206004820152600b60248201526a10a9bab832b92a37b5b2b760a91b604482015260640162000359565b6040516323b872dd60e01b81523360048201523060248201526001600160601b03821660448201527f00000000000000000000000000000000000000000000000000000000000000006001600160a01b0316906323b872dd906064016020604051808303816000875af115801562000505573d6000803e3d6000fd5b505050506040513d601f19601f820116820180604052508101906200052b919062001096565b6200054a5760405162461bcd60e51b81526004016200035990620010ba565b600033600260009054906101000a90046001600160a01b0316867f0000000000000000000000000000000000000000000000000000000000000000897f00000000000000000000000000000000000000000000000000000000000000007f00000000000000000000000000000000000000000000000000000000000000007f0000000000000000000000000000000000000000000000000000000000000000604051620005f79062000c8a565b6200060a9897969594939291906200115a565b604051809103906000f08015801562000627573d6000803e3d6000fd5b5060405163a9059cbb60e01b81526001600160a01b0380831660048301526001600160601b03851660248301529192507f00000000000000000000000000000000000000000000000000000000000000009091169063a9059cbb906044016020604051808303816000875af1158015620006a5573d6000803e3d6000fd5b505050506040513d601f19601f82011682018060405250810190620006cb919062001096565b620006ea5760405162461bcd60e51b81526004016200035990620010ba565b604051630c54fdc560e11b81526101006004820152600961010482015268536d6172742044434160b81b6101248201526101406024820152600061014482018190526001600160a01b0383166044830181905263ffffffff8616606484015230608484015261016060a484015261016483018290526001600160601b03851660c484015260e4830191909152906318a9fb8a9061018401600060405180830381600087803b1580156200079c57600080fd5b505af1158015620007b1573d6000803e3d6000fd5b50620007c892506000915033905083888862000b4c565b50336000908152600360209081526040822083929091620007ec908a018a62001056565b6001600160a01b039081168252602082019290925260400160002080546001600160a01b03191692909116919091179055505050505050565b60405162461bcd60e51b815260206004820152603160248201527f556e737570706f727465642063616c6c6261636b202d2041667465722041677260448201527019595b595b9d0815195c9b5a5b985d1959607a1b606482015260609060840162000359565b6001600160a01b03808416600090815260036020908152604080832086851684529091529020541680620008f85760405162461bcd60e51b81526020600482015260136024820152721b9bc81a5b9cdd185b98d94818dc99585d1959606a1b604482015260640162000359565b6040516323b872dd60e01b81523360048201526001600160a01b0382811660248301526001600160601b03841660448301527f000000000000000000000000000000000000000000000000000000000000000016906323b872dd906064016020604051808303816000875af115801562000976573d6000803e3d6000fd5b505050506040513d601f19601f820116820180604052508101906200099c919062001096565b620009bb5760405162461bcd60e51b81526004016200035990620010ba565b604051630fc0f81360e41b8152600060048201526001600160a01b0382169063fc0f813090602401600060405180830381600087803b158015620009fe57600080fd5b505af115801562000a13573d6000803e3d6000fd5b5050505050505050565b60405162461bcd60e51b815260206004820152603360248201527f556e737570706f727465642063616c6c6261636b202d20204265666f7265204160448201527219dc99595b595b9d0815195c9b5a5b985d1959606a1b606482015260609060840162000359565b60405162461bcd60e51b815260206004820152602f60248201527f556e737570706f727465642063616c6c6261636b202d204265666f726520416760448201526e1c99595b595b9d081d5c19185d1959608a1b606482015260609060840162000359565b60405162461bcd60e51b815260206004820152602e60248201527f556e737570706f727465642063616c6c6261636b202d2041667465722041677260448201526d19595b595b9d0810dc99585d195960921b606482015260609060840162000359565b60408051600081526020810190915260609062000b73908790879087908790879062000b7d565b9695505050505050565b855460018701546060916001600160a01b03908116916339255d5b9116806394229ecb888b8b8a60006040519080825280601f01601f19166020018201604052801562000bd1576020820181803683370190505b5060405160240162000be895949392919062001296565b60408051808303601f1901815291815260208201805160e094851b6001600160e01b03909116179052519185901b6001600160e01b031916825262000c35939250908790600401620012d6565b6000604051808303816000875af115801562000c55573d6000803e3d6000fd5b505050506040513d6000823e601f3d908101601f1916820160405262000c7f919081019062001310565b979650505050505050565b612d8980620013bf83390190565b6001600160a01b038116811462000cae57600080fd5b50565b803562000cbe8162000c98565b919050565b60008083601f84011262000cd657600080fd5b50813567ffffffffffffffff81111562000cef57600080fd5b60208301915083602082850101111562000d0857600080fd5b9250929050565b600080600080600080600080600060c08a8c03121562000d2e57600080fd5b893562000d3b8162000c98565b985060208a013562000d4d8162000c98565b975060408a0135965060608a013567ffffffffffffffff8082111562000d7257600080fd5b62000d808d838e0162000cc3565b909850965060808c013591508082111562000d9a57600080fd5b62000da88d838e0162000cc3565b909650945060a08c013591508082111562000dc257600080fd5b5062000dd18c828d0162000cc3565b915080935050809150509295985092959850929598565b60005b8381101562000e0557818101518382015260200162000deb565b50506000910152565b6000815180845262000e2881602086016020860162000de8565b601f01601f19169290920160200192915050565b60208152600062000e51602083018462000e0e565b9392505050565b6000806040838503121562000e6c57600080fd5b823562000e798162000c98565b9150602083013562000e8b8162000c98565b809150509250929050565b600080600080600080600060a0888a03121562000eb257600080fd5b873562000ebf8162000c98565b9650602088013562000ed18162000c98565b955060408801359450606088013567ffffffffffffffff8082111562000ef657600080fd5b62000f048b838c0162000cc3565b909650945060808a013591508082111562000f1e57600080fd5b5062000f2d8a828b0162000cc3565b989b979a50959850939692959293505050565b803563ffffffff8116811462000cbe57600080fd5b80356001600160601b038116811462000cbe57600080fd5b600080600080600060a0868803121562000f8657600080fd5b853567ffffffffffffffff81111562000f9e57600080fd5b8601610100818903121562000fb257600080fd5b9450602086013562000fc48162000c98565b93506040860135600b81900b811462000fdc57600080fd5b925062000fec6060870162000f40565b915062000ffc6080870162000f55565b90509295509295909350565b6000806000606084860312156200101e57600080fd5b83356200102b8162000c98565b925060208401356200103d8162000c98565b91506200104d6040850162000f55565b90509250925092565b6000602082840312156200106957600080fd5b813562000e518162000c98565b6000602082840312156200108957600080fd5b815162000e518162000c98565b600060208284031215620010a957600080fd5b8151801515811462000e5157600080fd5b6020808252601490820152731b1a5b9ac81d1c985b9cd9995c8819985a5b195960621b604082015260600190565b6000808335601e198436030181126200110057600080fd5b830160208101925035905067ffffffffffffffff8111156200112157600080fd5b80360382131562000d0857600080fd5b81835281816020850137506000828201602090810191909152601f909101601f19169091010190565b6001600160a01b038981168252888116602083015287811660408301528681166060830152610100608083018190526000918735620011998162000c98565b1683820152620011ac6020880162000cb1565b6001600160a01b0316610120840152620011c96040880162000cb1565b6001600160a01b031661014084015260608701356101608401526080870135610180840152620011fc60a0880162000f40565b63ffffffff166101a084015260c08701356101c08401526200122260e0880188620010e8565b826101e08601526200123a6102008601828462001131565b93505050506200125560a08301866001600160a01b03169052565b6001600160a01b03841660c08301526001600160a01b03831660e08301529998505050505050505050565b634e487b7160e01b600052604160045260246000fd5b6001600160a01b038681168252858116602083015284166040820152600b83900b606082015260a06080820181905260009062000c7f9083018462000e0e565b6001600160a01b0384168152606060208201819052600090620012fc9083018562000e0e565b828103604084015262000b73818562000e0e565b6000602082840312156200132357600080fd5b815167ffffffffffffffff808211156200133c57600080fd5b818401915084601f8301126200135157600080fd5b81518181111562001366576200136662001280565b604051601f8201601f19908116603f0116810190838211818310171562001391576200139162001280565b81604052828152876020848701011115620013ab57600080fd5b62000c7f83602083016020880162000de856fe610140604052600c805464ffffffffff191664013659d6661790553480156200002757600080fd5b5060405162002d8938038062002d898339810160408190526200004a9162000512565b6001600160a01b03888116608090815287821660c09081528651600380546001600160a01b03199081169286169290921781556020890151600480548416918716919091179055604089015160058054909316951694909417905560608701516006559086015160075560a08601516008805463ffffffff191663ffffffff90921691909117905585015160095560e0850151859190600a90620000ef908262000713565b50905050846001600160a01b031663f698da256040518163ffffffff1660e01b8152600401602060405180830381865afa15801562000132573d6000803e3d6000fd5b505050506040513d601f19601f82011682018060405250810190620001589190620007df565b60a0526001600160a01b0383811660e08190528382166101005290821661012081905260405163095ea7b360e01b81526004810191909152600019602482015263095ea7b3906044016020604051808303816000875af1158015620001c1573d6000803e3d6000fd5b505050506040513d601f19601f82011682018060405250810190620001e79190620007f9565b50600360000160009054906101000a90046001600160a01b03166001600160a01b031663095ea7b3866001600160a01b0316639b552cc26040518163ffffffff1660e01b8152600401602060405180830381865afa1580156200024e573d6000803e3d6000fd5b505050506040513d601f19601f8201168201806040525081019062000274919062000824565b6040516001600160e01b031960e084901b1681526001600160a01b03909116600482015260001960248201526044016020604051808303816000875af1158015620002c3573d6000803e3d6000fd5b505050506040513d601f19601f82011682018060405250810190620002e99190620007f9565b506040805180820182526001600160a01b0389168082529151635b69006f60e11b81527fa9214cc96615e0085d3bb077758db69497dc2dce3b2b1e97bc93c3d18d83efd360048201529091602083019163b6d200de90602401602060405180830381865afa15801562000360573d6000803e3d6000fd5b505050506040513d601f19601f8201168201806040525081019062000386919062000824565b6001600160a01b039081169091528151600180546001600160a01b031990811692841692909217905560209092015160028054909316911617905550620008449650505050505050565b6001600160a01b0381168114620003e657600080fd5b50565b8051620003f681620003d0565b919050565b634e487b7160e01b600052604160045260246000fd5b60405161010081016001600160401b0381118282101715620004375762000437620003fb565b60405290565b604051601f8201601f191681016001600160401b0381118282101715620004685762000468620003fb565b604052919050565b805163ffffffff81168114620003f657600080fd5b600082601f8301126200049757600080fd5b81516001600160401b03811115620004b357620004b3620003fb565b6020620004c9601f8301601f191682016200043d565b8281528582848701011115620004de57600080fd5b60005b83811015620004fe578581018301518282018401528201620004e1565b506000928101909101919091529392505050565b600080600080600080600080610100808a8c0312156200053157600080fd5b89516200053e81620003d0565b60208b01519099506200055181620003d0565b60408b01519098506200056481620003d0565b60608b01519097506200057781620003d0565b60808b01519096506001600160401b03808211156200059557600080fd5b818c01915082828e031215620005aa57600080fd5b620005b462000411565b9250620005c182620003e9565b8352620005d160208301620003e9565b6020840152620005e460408301620003e9565b604084015260608201516060840152608082015160808401526200060b60a0830162000470565b60a084015260c082015160c084015260e0820151818111156200062d57600080fd5b6200063b8e82850162000485565b60e0850152505050809450506200065560a08a01620003e9565b92506200066560c08a01620003e9565b91506200067560e08a01620003e9565b90509295985092959890939650565b600181811c908216806200069957607f821691505b602082108103620006ba57634e487b7160e01b600052602260045260246000fd5b50919050565b601f8211156200070e57600081815260208120601f850160051c81016020861015620006e95750805b601f850160051c820191505b818110156200070a57828155600101620006f5565b5050505b505050565b81516001600160401b038111156200072f576200072f620003fb565b620007478162000740845462000684565b84620006c0565b602080601f8311600181146200077f5760008415620007665750858301515b600019600386901b1c1916600185901b1785556200070a565b600085815260208120601f198616915b82811015620007b0578886015182559484019460019091019084016200078f565b5085821015620007cf5787850151600019600388901b60f8161c191681555b5050505050600190811b01905550565b600060208284031215620007f257600080fd5b5051919050565b6000602082840312156200080c57600080fd5b815180151581146200081d57600080fd5b9392505050565b6000602082840312156200083757600080fd5b81516200081d81620003d0565b60805160a05160c05160e051610100516101205161245b6200092e60003960008181610281015281816104e9015281816106890152818161075101526114b20152600081816101a501526105d4015260008181610166015281816105a5015281816112370152818161137d01526114130152600081816101cc0152818161082c015281816108fc01528181610c2501528181610fd4015261111501526000818161032d0152610aee0152600081816102a8015281816109de01528181610d8b01528181610eff01528181610fb201528181611024015281816111460152611268015261245b6000f3fe608060405234801561001057600080fd5b50600436106101165760003560e01c806373d4a13a116100a2578063d3112b2e11610071578063d3112b2e146102d3578063ddbbd5851461030d578063ea8a1af014610320578063f698da2514610328578063fc0f81301461034f57600080fd5b806373d4a13a146102605780637b1039991461027c5780638da5cb5b146102a3578063ba253b4d146102ca57600080fd5b80632b4116f7116100e95780632b4116f7146101c75780633767467b146101ee5780634585e33b146102055780636dbc8813146102185780636e04ff0d1461023f57600080fd5b80631626ba7e1461011b57806318a9fb8a1461014c5780631c4695f4146101615780632b20e397146101a0575b600080fd5b61012e610129366004611747565b610362565b6040516001600160e01b031990911681526020015b60405180910390f35b61015f61015a366004611917565b610464565b005b6101887f000000000000000000000000000000000000000000000000000000000000000081565b6040516001600160a01b039091168152602001610143565b6101887f000000000000000000000000000000000000000000000000000000000000000081565b6101887f000000000000000000000000000000000000000000000000000000000000000081565b6101f7600b5481565b604051908152602001610143565b61015f610213366004611a01565b6107ff565b6101f77f8a39b6c2a36ba4eae3db7811e6c2e09688101a734abf1a8f9c58075baffa6a9d81565b61025261024d366004611a01565b610bf2565b604051610143929190611a92565b610268610cb6565b604051610143989796959493929190611ab5565b6101887f000000000000000000000000000000000000000000000000000000000000000081565b6101887f000000000000000000000000000000000000000000000000000000000000000081565b6101f760005481565b6001546002546102ed916001600160a01b03908116911682565b604080516001600160a01b03938416815292909116602083015201610143565b61015f61031b366004611b1a565b610d80565b61015f610ef4565b6101f77f000000000000000000000000000000000000000000000000000000000000000081565b61015f61035d366004611be9565b611355565b6000805484146103a95760405162461bcd60e51b815260206004820152600d60248201526c34b73b30b634b21037b93232b960991b60448201526064015b60405180910390fd5b6006546003546040516370a0823160e01b81523060048201526001600160a01b03909116906370a0823190602401602060405180830381865afa1580156103f4573d6000803e3d6000fd5b505050506040513d601f19601f820116820180604052508101906104189190611c02565b10156104545760405162461bcd60e51b815260206004820152600b60248201526a6c6f772062616c616e636560a81b60448201526064016103a0565b50630b135d3f60e11b9392505050565b600c5465010000000000900460ff16156104b55760405162461bcd60e51b8152602060048201526012602482015271105b1c9958591e481c9959da5cdd195c995960721b60448201526064016103a0565b600c805465ff000000000019166501000000000017905560408051631865c57d60e01b815290516000916001600160a01b037f00000000000000000000000000000000000000000000000000000000000000001691631865c57d9160048082019286929091908290030181865afa158015610534573d6000803e3d6000fd5b505050506040513d6000823e601f3d908101601f1916820160405261055c9190810190611dc8565b5050805160405191925063ffffffff1690600090610592908e908e908e908e908e908e908e908e908e908e903090602001611eb6565b60405160208183030381529060405290507f00000000000000000000000000000000000000000000000000000000000000006001600160a01b0316634000aea07f000000000000000000000000000000000000000000000000000000000000000087600c60009054906101000a900460e01b85604051602001610616929190611f4c565b6040516020818303038152906040526040518463ffffffff1660e01b815260040161064393929190611f7d565b6020604051808303816000875af1158015610662573d6000803e3d6000fd5b505050506040513d601f19601f820116820180604052508101906106869190611fb9565b507f00000000000000000000000000000000000000000000000000000000000000006001600160a01b0316631865c57d6040518163ffffffff1660e01b8152600401600060405180830381865afa1580156106e5573d6000803e3d6000fd5b505050506040513d6000823e601f3d908101601f1916820160405261070d9190810190611dc8565b5050805190935063ffffffff16610725836001611ff8565b81036107af57610736600143612011565b60408051914060208301526bffffffffffffffffffffffff197f000000000000000000000000000000000000000000000000000000000000000060601b16908201526001600160e01b031960e085901b16605482015260580160408051601f198184030181529190528051602090910120600b556107ef565b60405162461bcd60e51b8152602060048201526015602482015274185d5d1bcb585c1c1c9bdd9948191a5cd8589b1959605a1b60448201526064016103a0565b5050505050505050505050505050565b600c54640100000000900460ff1680156108a257506006546040516370a0823160e01b81523060048201527f00000000000000000000000000000000000000000000000000000000000000006001600160a01b0316906370a0823190602401602060405180830381865afa15801561087b573d6000803e3d6000fd5b505050506040513d601f19601f8201168201806040525081019061089f9190611c02565b10155b6108e25760405162461bcd60e51b81526020600482015260116024820152701d5c12d9595c081b9bdd081b9959591959607a1b60448201526064016103a0565b6006546040516308de640f60e11b815260048101919091527f00000000000000000000000000000000000000000000000000000000000000006001600160a01b0316906311bcc81e90602401600060405180830381600087803b15801561094857600080fd5b505af115801561095c573d6000803e3d6000fd5b50506006546040519081527f93cb49efbd5a4f6d1626c90d020ced56f6f2524b5fcac880b4091456bea101cc9250602001905060405180910390a160408051610180810182526003546001600160a01b0390811682526004548116602083015260055460009383019116156109dc576005546001600160a01b03166109fe565b7f00000000000000000000000000000000000000000000000000000000000000005b6001600160a01b0316815260065460208201526007546040820152600854606090910190610a329063ffffffff1642612024565b63ffffffff1681526020017f8a39b6c2a36ba4eae3db7811e6c2e09688101a734abf1a8f9c58075baffa6a9d815260200160036006015481526020017ff3b277728b3fee749481eb3e0b3b48980dbbab78658fc419025cb16eee34677581526020016000151581526020017f5a28e9363bb942b639270062aa6bb295f434bcdfc42c97267bf003f272060dc981526020017f5a28e9363bb942b639270062aa6bb295f434bcdfc42c97267bf003f272060dc98152509050610b1c7f00000000000000000000000000000000000000000000000000000000000000008261155790919063ffffffff16565b6000908155604080518082018252828152815160208181018452938152928101929092525130907fcf5f9de2984132265203b5c335b25727702ca77262ff622e136baa7362bf1da990610b759085908590600a9061213e565b60405180910390a260408051603880825260608201909252600091602082018180368337505060005460a0860151929350610bb49284925030906115a8565b7f2772f40bd49922321419101bd520c9062afe832f1c5bdfdfaa5e0a8c9453068b81604051610be39190612231565b60405180910390a15050505050565b600c54600090606090640100000000900460ff168015610c9b57506006546040516370a0823160e01b81523060048201527f00000000000000000000000000000000000000000000000000000000000000006001600160a01b0316906370a0823190602401602060405180830381865afa158015610c74573d6000803e3d6000fd5b505050506040513d601f19601f82011682018060405250810190610c989190611c02565b10155b91506040518060200160405280600081525090509250929050565b60038054600454600554600654600754600854600954600a80546001600160a01b039889169997891698909616969495939463ffffffff90931693919291610cfd90612087565b80601f0160208091040260200160405190810160405280929190818152602001828054610d2990612087565b8015610d765780601f10610d4b57610100808354040283529160200191610d76565b820191906000526020600020905b815481529060010190602001808311610d5957829003601f168201915b5050505050905088565b336001600160a01b037f00000000000000000000000000000000000000000000000000000000000000001614610de85760405162461bcd60e51b815260206004820152600d60248201526c3737ba103a34329037bbb732b960991b60448201526064016103a0565b80516003546001600160a01b039081169116148015610e19575060208101516004546001600160a01b039081169116145b610e5a5760405162461bcd60e51b815260206004820152601260248201527143616e74206368616e676520746f6b656e7360701b60448201526064016103a0565b8051600380546001600160a01b03199081166001600160a01b0393841617825560208401516004805483169185169190911790556040840151600580549092169316929092179091556060820151600655608082015160075560a08201516008805463ffffffff191663ffffffff90921691909117905560c082015160095560e0820151829190600a90610eee908261228f565b50505050565b336001600160a01b037f00000000000000000000000000000000000000000000000000000000000000001614610f5c5760405162461bcd60e51b815260206004820152600d60248201526c3737ba103a34329037bbb732b960991b60448201526064016103a0565b600c54640100000000900460ff16610fa75760405162461bcd60e51b815260206004820152600e60248201526d105b1c9958591e4818db1bdcd95960921b60448201526064016103a0565b60008055610ff860017f0000000000000000000000000000000000000000000000000000000000000000307f000000000000000000000000000000000000000000000000000000000000000061160b565b6003546040516370a0823160e01b81523060048201526001600160a01b0390911690819063a9059cbb907f00000000000000000000000000000000000000000000000000000000000000009083906370a0823190602401602060405180830381865afa15801561106c573d6000803e3d6000fd5b505050506040513d601f19601f820116820180604052508101906110909190611c02565b6040516001600160e01b031960e085901b1681526001600160a01b03909216600483015260248201526044016020604051808303816000875af11580156110db573d6000803e3d6000fd5b505050506040513d601f19601f820116820180604052508101906110ff9190611fb9565b506040516370a0823160e01b81523060048201527f00000000000000000000000000000000000000000000000000000000000000006001600160a01b03169063a9059cbb907f00000000000000000000000000000000000000000000000000000000000000009083906370a0823190602401602060405180830381865afa15801561118e573d6000803e3d6000fd5b505050506040513d601f19601f820116820180604052508101906111b29190611c02565b6040516001600160e01b031960e085901b1681526001600160a01b03909216600483015260248201526044016020604051808303816000875af11580156111fd573d6000803e3d6000fd5b505050506040513d601f19601f820116820180604052508101906112219190611fb9565b506040516370a0823160e01b81523060048201527f00000000000000000000000000000000000000000000000000000000000000006001600160a01b03169063a9059cbb907f00000000000000000000000000000000000000000000000000000000000000009083906370a0823190602401602060405180830381865afa1580156112b0573d6000803e3d6000fd5b505050506040513d601f19601f820116820180604052508101906112d49190611c02565b6040516001600160e01b031960e085901b1681526001600160a01b03909216600483015260248201526044016020604051808303816000875af115801561131f573d6000803e3d6000fd5b505050506040513d601f19601f820116820180604052508101906113439190611fb9565b5050600c805464ff0000000019169055565b80156113fb576040516323b872dd60e01b8152336004820152306024820152604481018290527f00000000000000000000000000000000000000000000000000000000000000006001600160a01b0316906323b872dd906064016020604051808303816000875af11580156113ce573d6000803e3d6000fd5b505050506040513d601f19601f820116820180604052508101906113f29190611fb9565b6113fb57600080fd5b6040516370a0823160e01b81523060048201526000907f00000000000000000000000000000000000000000000000000000000000000006001600160a01b0316906370a0823190602401602060405180830381865afa158015611462573d6000803e3d6000fd5b505050506040513d601f19601f820116820180604052508101906114869190611c02565b600b5460405163948108f760e01b815260048101919091526001600160601b03821660248201529091507f00000000000000000000000000000000000000000000000000000000000000006001600160a01b03169063948108f790604401600060405180830381600087803b1580156114fe57600080fd5b505af1158015611512573d6000803e3d6000fd5b50506040516001600160601b03841681527f57be0fdebc8e5af59d378416128fe7d441d3fdee69ac05af533806f88e7285329250602001905060405180910390a15050565b601f1990910180517fd5a25ba2e97094ad7d83dc28a6572da797d6b3e7fc6663bd93efb789fc17e48982526101a08220915260405161190160f01b8152600281019290925260228201526042902090565b60388451146115f95760405162461bcd60e51b815260206004820152601960248201527f475076323a2075696420627566666572206f766572666c6f770000000000000060448201526064016103a0565b60388401526034830152602090910152565b6040805160008082528654600188015460208401928352838501909452610eee9388938893889388936001600160a01b03918216926339255d5b9290911690819063b4b333c6906116659088908b908b9060648b0161234e565b60408051808303601f1901815291815260208201805160e094851b6001600160e01b03909116179052519185901b6001600160e01b03191682526116b0939250908690600401612382565b6000604051808303816000875af11580156116cf573d6000803e3d6000fd5b505050506040513d6000823e601f3d908101601f191682016040526116f791908101906123b8565b505050505050565b60008083601f84011261171157600080fd5b5081356001600160401b0381111561172857600080fd5b60208301915083602082850101111561174057600080fd5b9250929050565b60008060006040848603121561175c57600080fd5b8335925060208401356001600160401b0381111561177957600080fd5b611785868287016116ff565b9497909650939450505050565b634e487b7160e01b600052604160045260246000fd5b60405161010081016001600160401b03811182821017156117cb576117cb611792565b60405290565b60405161018081016001600160401b03811182821017156117cb576117cb611792565b604051601f8201601f191681016001600160401b038111828210171561181c5761181c611792565b604052919050565b60006001600160401b0382111561183d5761183d611792565b50601f01601f191660200190565b600082601f83011261185c57600080fd5b813561186f61186a82611824565b6117f4565b81815284602083860101111561188457600080fd5b816020850160208301376000918101602001919091529392505050565b6001600160a01b03811681146118b657600080fd5b50565b80356118c4816118a1565b919050565b63ffffffff811681146118b657600080fd5b80356118c4816118c9565b6001600160601b03811681146118b657600080fd5b80356118c4816118e6565b803560ff811681146118c457600080fd5b6000806000806000806000806000806101008b8d03121561193757600080fd5b8a356001600160401b038082111561194e57600080fd5b61195a8e838f0161184b565b9b5060208d013591508082111561197057600080fd5b61197c8e838f016116ff565b909b50995089915061199060408e016118b9565b985061199e60608e016118db565b97506119ac60808e016118b9565b965060a08d01359150808211156119c257600080fd5b506119cf8d828e016116ff565b90955093506119e2905060c08c016118fb565b91506119f060e08c01611906565b90509295989b9194979a5092959850565b60008060208385031215611a1457600080fd5b82356001600160401b03811115611a2a57600080fd5b611a36858286016116ff565b90969095509350505050565b60005b83811015611a5d578181015183820152602001611a45565b50506000910152565b60008151808452611a7e816020860160208601611a42565b601f01601f19169290920160200192915050565b8215158152604060208201526000611aad6040830184611a66565b949350505050565b6001600160a01b038981168252888116602083015287166040820152606081018690526080810185905263ffffffff841660a082015260c0810183905261010060e08201819052600090611b0b83820185611a66565b9b9a5050505050505050505050565b600060208284031215611b2c57600080fd5b81356001600160401b0380821115611b4357600080fd5b908301906101008286031215611b5857600080fd5b611b606117a8565b611b69836118b9565b8152611b77602084016118b9565b6020820152611b88604084016118b9565b60408201526060830135606082015260808301356080820152611bad60a084016118db565b60a082015260c083013560c082015260e083013582811115611bce57600080fd5b611bda8782860161184b565b60e08301525095945050505050565b600060208284031215611bfb57600080fd5b5035919050565b600060208284031215611c1457600080fd5b5051919050565b80516118c4816118c9565b80516118c4816118e6565b805162ffffff811681146118c457600080fd5b805161ffff811681146118c457600080fd5b80516118c4816118a1565b60006101808284031215611c7457600080fd5b611c7c6117d1565b9050611c8782611c1b565b8152611c9560208301611c1b565b6020820152611ca660408301611c31565b6040820152611cb760608301611c1b565b6060820152611cc860808301611c31565b6080820152611cd960a08301611c44565b60a0820152611cea60c08301611c26565b60c0820152611cfb60e08301611c1b565b60e082015261010082810151908201526101208083015190820152610140611d24818401611c56565b90820152610160611d36838201611c56565b9082015292915050565b600082601f830112611d5157600080fd5b815160206001600160401b03821115611d6c57611d6c611792565b8160051b611d7b8282016117f4565b9283528481018201928281019087851115611d9557600080fd5b83870192505b84831015611dbd578251611dae816118a1565b82529183019190830190611d9b565b979650505050505050565b6000806000838503610220811215611ddf57600080fd5b6080811215611ded57600080fd5b50604051608081016001600160401b038282108183111715611e1157611e11611792565b8160405286519150611e22826118c9565b908252602086015190611e34826118e6565b8160208401526040870151604084015260608701516060840152829550611e5e8860808901611c61565b9450610200870151925080831115611e7557600080fd5b5050611e8386828701611d40565b9150509250925092565b81835281816020850137506000828201602090810191909152601f909101601f19169091010190565b6000610120808352611eca8184018f611a66565b90508281036020840152611edf818d8f611e8d565b6001600160a01b038c8116604086015263ffffffff8c1660608601528a8116608086015284820360a0860152909150611f1982898b611e8d565b6001600160601b039790971660c085015260ff9590951660e0840152505091166101009091015298975050505050505050565b6001600160e01b0319831681528151600090611f6f816004850160208701611a42565b919091016004019392505050565b6001600160a01b03841681526001600160601b0383166020820152606060408201819052600090611fb090830184611a66565b95945050505050565b600060208284031215611fcb57600080fd5b81518015158114611fdb57600080fd5b9392505050565b634e487b7160e01b600052601160045260246000fd5b8082018082111561200b5761200b611fe2565b92915050565b8181038181111561200b5761200b611fe2565b63ffffffff81811683821601908082111561204157612041611fe2565b5092915050565b600081516002811061206a57634e487b7160e01b600052602160045260246000fd5b80845250602082015160406020850152611aad6040850182611a66565b600181811c9082168061209b57607f821691505b6020821081036120bb57634e487b7160e01b600052602260045260246000fd5b50919050565b600081546120ce81612087565b8085526020600183811680156120eb576001811461210557612133565b60ff1985168884015283151560051b880183019550612133565b866000528260002060005b8581101561212b5781548a8201860152908301908401612110565b890184019650505b505050505092915050565b83516001600160a01b0316815260006101c0602086015161216a60208501826001600160a01b03169052565b50604086015161218560408501826001600160a01b03169052565b50606086015160608401526080860151608084015260a08601516121b160a085018263ffffffff169052565b5060c086015160c084015260e086015160e0840152610100808701518185015250610120808701516121e68286018215159052565b505061014086810151908401526101608087015190840152610180830181905261221281840186612048565b90508281036101a084015261222781856120c1565b9695505050505050565b602081526000611fdb6020830184611a66565b601f82111561228a57600081815260208120601f850160051c8101602086101561226b5750805b601f850160051c820191505b818110156116f757828155600101612277565b505050565b81516001600160401b038111156122a8576122a8611792565b6122bc816122b68454612087565b84612244565b602080601f8311600181146122f157600084156122d95750858301515b600019600386901b1c1916600185901b1785556116f7565b600085815260208120601f198616915b8281101561232057888601518255948401946001909101908401612301565b508582101561233e5787850151600019600388901b60f8161c191681555b5050505050600190811b01905550565b6001600160a01b03858116825284811660208301528316604082015260806060820181905260009061222790830184611a66565b6001600160a01b03841681526060602082018190526000906123a690830185611a66565b82810360408401526122278185611a66565b6000602082840312156123ca57600080fd5b81516001600160401b038111156123e057600080fd5b8201601f810184136123f157600080fd5b80516123ff61186a82611824565b81815285602083850101111561241457600080fd5b611fb0826020830160208601611a4256fea264697066735822122052ce990023f21a554dc9eeef00c5c37900f6f3eee923cd533a53e064c029d1e464736f6c63430008110033a26469706673582212203cedad7b0d0dbabb59cb0970782da1a0d66d884d22fa5e2679a9575a9417e93364736f6c63430008110033",
    "linkReferences": {},
    "deployedLinkReferences": {}
}